{
  "contractName": "Marketplace",
  "abi": [
    {
      "constant": true,
      "inputs": [
        {
          "name": "",
          "type": "address"
        }
      ],
      "name": "macTaken",
      "outputs": [
        {
          "name": "",
          "type": "bool"
        }
      ],
      "payable": false,
      "stateMutability": "view",
      "type": "function"
    },
    {
      "constant": true,
      "inputs": [],
      "name": "nft",
      "outputs": [
        {
          "name": "",
          "type": "address"
        }
      ],
      "payable": false,
      "stateMutability": "view",
      "type": "function"
    },
    {
      "constant": true,
      "inputs": [],
      "name": "tokenPrice",
      "outputs": [
        {
          "name": "",
          "type": "uint256"
        }
      ],
      "payable": false,
      "stateMutability": "view",
      "type": "function"
    },
    {
      "constant": true,
      "inputs": [],
      "name": "mat",
      "outputs": [
        {
          "name": "",
          "type": "address"
        }
      ],
      "payable": false,
      "stateMutability": "view",
      "type": "function"
    },
    {
      "constant": true,
      "inputs": [],
      "name": "buyersCount",
      "outputs": [
        {
          "name": "",
          "type": "uint256"
        }
      ],
      "payable": false,
      "stateMutability": "view",
      "type": "function"
    },
    {
      "constant": true,
      "inputs": [
        {
          "name": "",
          "type": "uint256"
        }
      ],
      "name": "buyers",
      "outputs": [
        {
          "name": "id",
          "type": "uint256"
        },
        {
          "name": "name",
          "type": "string"
        },
        {
          "name": "balance",
          "type": "uint256"
        }
      ],
      "payable": false,
      "stateMutability": "view",
      "type": "function"
    },
    {
      "inputs": [
        {
          "name": "_tokenPrice",
          "type": "uint256"
        }
      ],
      "payable": false,
      "stateMutability": "nonpayable",
      "type": "constructor"
    },
    {
      "constant": false,
      "inputs": [
        {
          "name": "_buyerId",
          "type": "uint256"
        }
      ],
      "name": "claimMac",
      "outputs": [],
      "payable": false,
      "stateMutability": "nonpayable",
      "type": "function"
    }
  ],
  "bytecode": "0x608060405234801561001057600080fd5b506040516020806105e783398101806040528101908080519060200190929190505050336000806101000a81548173ffffffffffffffffffffffffffffffffffffffff021916908373ffffffffffffffffffffffffffffffffffffffff160217905550806003819055505061055d8061008a6000396000f300608060405260043610610083576000357c0100000000000000000000000000000000000000000000000000000000900463ffffffff168063396c596a1461008857806347ccca02146100e35780637ff9b5961461013a578063ab0783da14610165578063ba3a7e95146101bc578063ba49a08c146101e9578063f2aa821814610214575b600080fd5b34801561009457600080fd5b506100c9600480360381019080803573ffffffffffffffffffffffffffffffffffffffff1690602001909291905050506102c8565b604051808215151515815260200191505060405180910390f35b3480156100ef57600080fd5b506100f86102e8565b604051808273ffffffffffffffffffffffffffffffffffffffff1673ffffffffffffffffffffffffffffffffffffffff16815260200191505060405180910390f35b34801561014657600080fd5b5061014f61030e565b6040518082815260200191505060405180910390f35b34801561017157600080fd5b5061017a610314565b604051808273ffffffffffffffffffffffffffffffffffffffff1673ffffffffffffffffffffffffffffffffffffffff16815260200191505060405180910390f35b3480156101c857600080fd5b506101e76004803603810190808035906020019092919050505061033a565b005b3480156101f557600080fd5b506101fe610469565b6040518082815260200191505060405180910390f35b34801561022057600080fd5b5061023f6004803603810190808035906020019092919050505061046f565b6040518084815260200180602001838152602001828103825284818151815260200191508051906020019080838360005b8381101561028b578082015181840152602081019050610270565b50505050905090810190601f1680156102b85780820380516001836020036101000a031916815260200191505b5094505050505060405180910390f35b60046020528060005260406000206000915054906101000a900460ff1681565b600260009054906101000a900473ffffffffffffffffffffffffffffffffffffffff1681565b60035481565b600160009054906101000a900473ffffffffffffffffffffffffffffffffffffffff1681565b600460003373ffffffffffffffffffffffffffffffffffffffff1673ffffffffffffffffffffffffffffffffffffffff16815260200190815260200160002060009054906101000a900460ff1615151561039357600080fd5b6001600460003373ffffffffffffffffffffffffffffffffffffffff1673ffffffffffffffffffffffffffffffffffffffff16815260200190815260200160002060006101000a81548160ff0219169083151502179055508073ffffffffffffffffffffffffffffffffffffffff163160056000838152602001908152602001600020600201819055508073ffffffffffffffffffffffffffffffffffffffff166108fc6103e89081150290604051600060405180830381858888f19350505050158015610465573d6000803e3d6000fd5b5050565b60065481565b6005602052806000526040600020600091509050806000015490806001018054600181600116156101000203166002900480601f0160208091040260200160405190810160405280929190818152602001828054600181600116156101000203166002900480156105215780601f106104f657610100808354040283529160200191610521565b820191906000526020600020905b81548152906001019060200180831161050457829003601f168201915b50505050509080600201549050835600a165627a7a7230582030f6b8034a7c4ef9bd9b9dff0f1e272caa672eaaa6b9bb41d11496af82dbae960029",
  "source": "pragma solidity ^0.4.2;\n\nimport \"./MyArtCoin.sol\";\nimport \"./MyArtToken.sol\";\n\ncontract Marketplace {\n    address bank;\n    MyArtCoin public mat;\n    MyArtToken public nft;\n    uint256 public tokenPrice;\n\n    struct Buyer\n    {\n      uint id;\n      string name;\n      uint balance;\n    }\n\n    mapping(address => bool) public macTaken;\n\n    mapping (uint => Buyer) public buyers; \n\n    uint public buyersCount;\n\n    constructor(uint256 _tokenPrice) public {\n        bank = msg.sender;\n\n        tokenPrice = _tokenPrice;\n    }\n\n    //function buyTokens(uint256 _numberOfTokens) public payable {\n    //    require(msg.value == multiply(_numberOfTokens, tokenPrice));\n    //    require(tokenContract.balanceOf(this) >= _numberOfTokens);\n    //    require(tokenContract.transfer(msg.sender, _numberOfTokens));\n\n    //    tokensSold += _numberOfTokens;\n\n    //   Sell(msg.sender, _numberOfTokens);\n    //}\n\n    function claimMac(uint _buyerId) public {\n        require(!macTaken\n[msg.sender]);\n\n        macTaken\n[msg.sender] = true;\n\n        buyers[_buyerId].balance =  address(_buyerId).balance;\n        address(_buyerId).transfer(1000);\n    }\n}\n",
  "sourcePath": "/Users/myriamazzaz/Market/contracts/Marketplace.sol",
  "compiler": {
    "name": "solc",
    "version": "0.4.24+commit.e67f0147.Emscripten.clang"
  },
  "schemaVersion": "2.0.1",
  "updatedAt": "2021-06-21T11:45:12.250Z"
}